:100000008AC1A4C1A3C1A2C1A1C1A0C19FC19EC1F7
:100010009DC19CC19BC19AC199C198C197C1000063
:1000200000000000000000065F5F060000000007FF
:10003000070007070000147F7F147F7F1400242E21
:100040006B6B3A120000466630180C666200307A1C
:100050004F5D377A48000407030000000000001CD1
:100060003E63410000000041633E1C000000082A7E
:100070003E1C1C3E2A0808083E3E0808000000807E
:10008000E060000000000808080808080000000000
:100090006060000000006030180C060301003E7F25
:1000A00071594D7F3E0040427F7F404000006273A7
:1000B00059496F660000226349497F360000181CC9
:1000C00016537F7F5000276745457D3900003C7EF1
:1000D0004B4979300000030371790F070000367F28
:1000E00049497F360000064F49693F1E0000000065
:1000F0006666000000000080E66600000000081C44
:1001000036634100000024242424242400000041FC
:1001100063361C080000020351590F0600003E7FA1
:10012000415D5D1F1E007C7E13137E7C0000417FBD
:100130007F49497F36001C3E634141632200417F75
:100140007F41633E1C00417F7F495D416300417FE9
:100150007F491D0103001C3E6341517372007F7F84
:1001600008087F7F000000417F7F41000000307061
:1001700040417F3F0100417F7F081C776300417F42
:100180007F41406070007F7F0E1C0E7F7F007F7F6D
:10019000060C187F7F001C3E6341633E1C00417FBC
:1001A0007F49090F06001E3F21717F5E0000417FDD
:1001B0007F09197F6600266F4D5973320000034195
:1001C0007F7F410300007F7F40407F7F00001F3F13
:1001D00060603F1F00007F7F3018307F7F004367E3
:1001E0003C183C674300074F78784F07000047638F
:1001F00071594D677300007F7F414100000001038A
:10020000060C183060000041417F7F000000080CA0
:100210000603060C080080808080808080800000BB
:10022000030704000000207454543C784000417FD0
:100230003F4848783000387C44446C2800003078CF
:1002400048493F7F4000387C54545C180000487E89
:100250007F490302000098BCA4A4F87C0400417FFD
:100260007F08047C780000447D7D4000000060E051
:100270008080FD7D0000417F7F10386C440000418C
:100280007F7F400000007C7C18381C7C78007C7CE0
:1002900004047C780000387C44447C38000084FCF2
:1002A000F8A4243C1800183C24A4F8FC8400447CE6
:1002B000784C041C1800485C54547424000000045A
:1002C0003E7F442400003C7C40403C7C40001C3C81
:1002D00060603C1C00003C7C7038707C3C00446CCE
:1002E0003810386C44009CBCA0A0FC7C00004C641E
:1002F000745C4C640000AED5F0A83FD300408D1470
:100300002000A1C8DA12813FD922DB20A4A62EAF9B
:1003100022003F21007F11241FBECFE5D2E0DEBFC7
:10032000CDBF11E0A0E6B0E0ECEDF6E002C0059034
:100330000D92A036B107D9F721E0A0E6B1E001C0E7
:100340001D92A836B207E1F74BD1C6C159CE209114
:10035000600130916101C90144E0880F991F4A95FD
:10036000E1F72D5A3F4F820F931F909361018093C5
:100370006001969587959695879508956EC00F9321
:100380001F93CF93DF93C82FD0E083E0CC0FDD1F06
:100390008A95E1F75BD000E010E0DA95FE01E00F0E
:1003A000F11FE25EFF4F849156D00F5F1F4F083060
:1003B0001105A1F7DF91CF911F910F914DC00F93C0
:1003C0001F93CF93DF938A01880F880F880F55D032
:1003D000E8018991882311F0D2DFFBCFDF91CF9123
:1003E0001F910F910895CF93DF93C82FD62FCA0185
:1003F0001092670162E671E087D042E651E06D2F0E
:100400008C2FDF91CF91DBCFB89ABA9AC29AC09A5B
:10041000C098C2980895C298C098C29AC09AB898D5
:10042000BA98089598E087FF02C0C09A01C0C098AA
:10043000880FC29AC2989150B1F7C09AC29AC298D6
:100440000895E2DF88E7EEDF80E0ECCFDDDF88E7CC
:10045000E9DF80E4E7CFE6CFDECFCF93DF93F1DFB4
:10046000C6EFD2E0FE018491DDDF2196F3E0C631D4
:10047000DF07C1F7DF91CF91CECFCF93DF93C82FA6
:10048000D62FDFDF8D2F8770806BCCDF8C2F8F70A6
:10049000C9DF8C2F82958F708061C4DFDF91CF918F
:1004A000BACF1F93CF93DF93182F60E080E0E5DF92
:1004B000CDDFC0E0D4E0812FB5DF2197E1F7DF91F8
:1004C000CF911F91A8CFEF92FF920F931F93CF93DD
:1004D000DF93E82EF62E042F122F60E080E0CDDFB0
:1004E000B5DFC0E0D1E08E2D9DDF8F2D9BDF802F0B
:1004F00099DF812F97DF2197B1F7DF91CF911F917E
:100500000F91FF90EF9087CFCF93DF93CDB7DEB7FA
:100510002A970FB6F894DEBF0FBECDBFAC018AE0BC
:10052000E0E6F0E0DE01119601900D928A95E1F788
:10053000FE013196DB0120E084E06191719190E051
:100540004617570720F09F5F461B570BF9CF8430A3
:1005500039F4911104C0243011F090EF01C0822FC2
:10056000905D9D932F5F253041F72A960FB6F89442
:10057000DEBF0FBECDBFDF91CF910895AC0124E067
:10058000942F9F709A3010F4905D01C0995CFB012C
:10059000938384E0569547958A95E1F72150615001
:1005A00071092111EDCF84E00895FC0120E08FE076
:1005B00040E050E8E417F50730F0E41BF50B8F300E
:1005C00021F4822F02C090E001C091E0905DDB0138
:1005D0009D93BD01569547952F5F203159F708959A
:1005E000CDDE80E05EDFC3E08FEF5BDF80E059DFD0
:1005F000C150D1F74AE650E060E080E0E0DE4BE732
:1006000050E061E080E0DBDE4CE850E062E080E05A
:10061000D6DE2FE78AE196E0215080409040E1F756
:1006200000C000004DEE50E066E080E0C8DE4EEF16
:1006300050E067E080E0C3DE2FE78AE196E02150DA
:1006400080409040E1F700C0000080E02ADF4FE0EA
:1006500051E060E080E0B3DE4FE151E061E080E036
:10066000AEDE4FE251E062E080E0A9DE4FE151E012
:1006700063E080E0A4DE4FE351E064E080E09FDED1
:100680004FE151E065E080E09ADE4FE451E066E042
:1006900080E095DE4EEE50E067E080E090DED4E64C
:1006A000C0E055DE1C2F110FAC01612F82E09BDEF4
:1006B0004EDEAC01612F8AE096DECF5FC43089F751
:1006C000D15071F72FE78AE196E0215080409040A9
:0C06D000E1F700C0000085CFF894FFCFD8
:1006DC001027E80364000A0001003C3C3C2054490C
:1006EC004E5553415552203E3E3E002D426C6F6399
:1006FC006B74696E752D4F4C45442D0021222324BB
:10070C0025262728292A2B2C2D2E2F303132333415
:10071C0035363738393A3B3C3D3E3F404142434405
:10072C0045464748494A4B4C4D4E4F5051525354F5
:10073C0055565758595A5B355D5E5F60616263640C
:10074C0065666768696A6B6C6D6E6F7071727374D5
:10075C0075767778797A7B7C7D7E7F80002D2D2D48
:10076C002D2D2D2D2D2D2D2D2D2D2D2D2D005B20B9
:10077C0074696E75736175722E636F6D205D0061A7
:10078C003A2D2D2D2D2D20583D2D2D2D2D2D00208C
:10079C00202D2D2D2D2D2020202D2D2D2D2D0062A9
:1007AC003A2D2D2D2D2D20593D2D2D2D2D2D006328
:1007BC003A2D2D2D2D2D205A3D2D2D2D2D2D004634
:1007CC00282D2D2D2D2D293D3E2D2D2D2D2D00008F
:00000001FF
